{
  "contractName": "UserLinkRegistry",
  "abi": [
    {
      "anonymous": false,
      "inputs": [
        {
          "indexed": true,
          "internalType": "address",
          "name": "user",
          "type": "address"
        },
        {
          "indexed": false,
          "internalType": "string",
          "name": "name",
          "type": "string"
        },
        {
          "indexed": false,
          "internalType": "string",
          "name": "link",
          "type": "string"
        }
      ],
      "name": "LinkAdded",
      "type": "event"
    },
    {
      "inputs": [
        {
          "internalType": "address",
          "name": "",
          "type": "address"
        }
      ],
      "name": "users",
      "outputs": [
        {
          "internalType": "string",
          "name": "name",
          "type": "string"
        },
        {
          "internalType": "string",
          "name": "link",
          "type": "string"
        }
      ],
      "stateMutability": "view",
      "type": "function",
      "constant": true
    },
    {
      "inputs": [
        {
          "internalType": "string",
          "name": "_name",
          "type": "string"
        },
        {
          "internalType": "string",
          "name": "_link",
          "type": "string"
        }
      ],
      "name": "addLink",
      "outputs": [],
      "stateMutability": "nonpayable",
      "type": "function"
    },
    {
      "inputs": [
        {
          "internalType": "address",
          "name": "_user",
          "type": "address"
        }
      ],
      "name": "getUserLink",
      "outputs": [
        {
          "internalType": "string",
          "name": "name",
          "type": "string"
        },
        {
          "internalType": "string",
          "name": "link",
          "type": "string"
        }
      ],
      "stateMutability": "view",
      "type": "function",
      "constant": true
    }
  ],
  "bytecode": "0x608060405234801561001057600080fd5b50610ac8806100206000396000f3fe608060405234801561001057600080fd5b506004361061005e576000357c0100000000000000000000000000000000000000000000000000000000900480630fec9efa146100635780638ee50cf51461007f578063a87430ba146100b0575b600080fd5b61007d600480360381019061007891906105eb565b6100e1565b005b610099600480360381019061009491906106c1565b6101b7565b6040516100a792919061076d565b60405180910390f35b6100ca60048036038101906100c591906106c1565b61035d565b6040516100d892919061076d565b60405180910390f35b6040518060400160405280838152602001828152506000803373ffffffffffffffffffffffffffffffffffffffff1673ffffffffffffffffffffffffffffffffffffffff168152602001908152602001600020600082015181600001908161014991906109c0565b50602082015181600101908161015f91906109c0565b509050503373ffffffffffffffffffffffffffffffffffffffff167fd2a77dca695327c7b78170ee625106d9173453156cf108c622f14d8e0c29a35c83836040516101ab92919061076d565b60405180910390a25050565b6060806000808473ffffffffffffffffffffffffffffffffffffffff1673ffffffffffffffffffffffffffffffffffffffff1681526020019081526020016000206000016000808573ffffffffffffffffffffffffffffffffffffffff1673ffffffffffffffffffffffffffffffffffffffff168152602001908152602001600020600101818054610248906107d3565b80601f0160208091040260200160405190810160405280929190818152602001828054610274906107d3565b80156102c15780601f10610296576101008083540402835291602001916102c1565b820191906000526020600020905b8154815290600101906020018083116102a457829003601f168201915b505050505091508080546102d4906107d3565b80601f0160208091040260200160405190810160405280929190818152602001828054610300906107d3565b801561034d5780601f106103225761010080835404028352916020019161034d565b820191906000526020600020905b81548152906001019060200180831161033057829003601f168201915b5050505050905091509150915091565b6000602052806000526040600020600091509050806000018054610380906107d3565b80601f01602080910402602001604051908101604052809291908181526020018280546103ac906107d3565b80156103f95780601f106103ce576101008083540402835291602001916103f9565b820191906000526020600020905b8154815290600101906020018083116103dc57829003601f168201915b50505050509080600101805461040e906107d3565b80601f016020809104026020016040519081016040528092919081815260200182805461043a906107d3565b80156104875780601f1061045c57610100808354040283529160200191610487565b820191906000526020600020905b81548152906001019060200180831161046a57829003601f168201915b5050505050905082565b6000604051905090565b600080fd5b600080fd5b600080fd5b600080fd5b6000601f19601f8301169050919050565b7f4e487b7100000000000000000000000000000000000000000000000000000000600052604160045260246000fd5b6104f8826104af565b810181811067ffffffffffffffff82111715610517576105166104c0565b5b80604052505050565b600061052a610491565b905061053682826104ef565b919050565b600067ffffffffffffffff821115610556576105556104c0565b5b61055f826104af565b9050602081019050919050565b82818337600083830152505050565b600061058e6105898461053b565b610520565b9050828152602081018484840111156105aa576105a96104aa565b5b6105b584828561056c565b509392505050565b600082601f8301126105d2576105d16104a5565b5b81356105e284826020860161057b565b91505092915050565b600080604083850312156106025761060161049b565b5b600083013567ffffffffffffffff8111156106205761061f6104a0565b5b61062c858286016105bd565b925050602083013567ffffffffffffffff81111561064d5761064c6104a0565b5b610659858286016105bd565b9150509250929050565b600073ffffffffffffffffffffffffffffffffffffffff82169050919050565b600061068e82610663565b9050919050565b61069e81610683565b81146106a957600080fd5b50565b6000813590506106bb81610695565b92915050565b6000602082840312156106d7576106d661049b565b5b60006106e5848285016106ac565b91505092915050565b600081519050919050565b600082825260208201905092915050565b60005b8381101561072857808201518184015260208101905061070d565b60008484015250505050565b600061073f826106ee565b61074981856106f9565b935061075981856020860161070a565b610762816104af565b840191505092915050565b600060408201905081810360008301526107878185610734565b9050818103602083015261079b8184610734565b90509392505050565b7f4e487b7100000000000000000000000000000000000000000000000000000000600052602260045260246000fd5b600060028204905060018216806107eb57607f821691505b6020821081036107fe576107fd6107a4565b5b50919050565b60008190508160005260206000209050919050565b60006020601f8301049050919050565b60008160020a8302905092915050565b6000600883026108697fffffffffffffffffffffffffffffffffffffffffffffffffffffffffffffffff82610829565b6108738683610829565b95508019841693508086168417925050509392505050565b6000819050919050565b6000819050919050565b60006108ba6108b56108b08461088b565b610895565b61088b565b9050919050565b6000819050919050565b6108d48361089f565b6108e86108e0826108c1565b848454610839565b825550505050565b600090565b6108fd6108f0565b6109088184846108cb565b505050565b5b8181101561092c576109216000826108f5565b60018101905061090e565b5050565b601f8211156109715761094281610804565b61094b84610819565b8101602085101561095a578190505b61096e61096685610819565b83018261090d565b50505b505050565b60008160020a8304905092915050565b600061099760001984600802610976565b1980831691505092915050565b60006109b08383610986565b9150826002028217905092915050565b6109c9826106ee565b67ffffffffffffffff8111156109e2576109e16104c0565b5b6109ec82546107d3565b6109f7828285610930565b600060209050601f831160018114610a2a5760008415610a18578287015190505b610a2285826109a4565b865550610a8a565b601f198416610a3886610804565b60005b82811015610a6057848901518255600182019150602085019450602081019050610a3b565b86831015610a7d5784890151610a79601f891682610986565b8355505b6001600288020188555050505b50505050505056fea26469706673582212201a9a2b8367b2d8e70c45f20e5bbf01b41593ad98d185b6b5441a4cfed1705c7264736f6c63430008130033",
  "immutableReferences": {},
  "source": "// SPDX-License-Identifier: MIT\npragma solidity ^0.8.0;\n\ncontract UserLinkRegistry {\n    struct UserInfo {\n        string name;\n        string link;\n    }\n\n    mapping(address => UserInfo) public users;\n\n    event LinkAdded(address indexed user, string name, string link);\n\n    function addLink(string memory _name, string memory _link) public {\n        users[msg.sender] = UserInfo(_name, _link);\n        emit LinkAdded(msg.sender, _name, _link);\n    }\n\n    function getUserLink(address _user) public view returns (string memory name, string memory link) {\n        return (users[_user].name, users[_user].link);\n    }\n}",
  "sourcePath": "/Users/psbharathkumarachari/Block-MEET/contracts/UserLinkRegistry.sol",
  "compiler": {
    "name": "solc",
    "version": "0.8.19+commit.7dd6d404.Emscripten.clang"
  },
  "schemaVersion": "3.4.16",
  "updatedAt": "2025-07-24T18:03:14.308Z",
  "networkType": "ethereum",
  "devdoc": {
    "kind": "dev",
    "methods": {},
    "version": 1
  },
  "userdoc": {
    "kind": "user",
    "methods": {},
    "version": 1
  }
}